:100000000C945B000C9481000C9481000C94810092
:100010000C9481000C9481000C9481000C9481005C
:100020000C9481000C9481000C9481000C9481004C
:100030000C9481000C9481000C9481000C9481003C
:100040000C94C2020C9481000C94A4040C948100C2
:100050000C9481000C9481000C9481000C9481001C
:100060000C9481000C948100C10200000007000282
:10007000010000030406000000000000000001026F
:100080000408102040800102040810200102040826
:100090001020040404040404040402020202020204
:1000A0000303030303030000232629000025282B54
:1000B000000024272A0011241FBECFEFD4E0DEBFAA
:1000C000CDBF11E0A0E0B1E0E0E4FCE002C00590AB
:1000D0000D92AE3FB107D9F712E0AEEFB1E001C02B
:1000E0001D92A738B107E1F710E0CAE6D0E004C0DE
:1000F0002297FE010E941C06C836D107C9F70C944E
:10010000F1010C9400000F931F930EEF11E040E8F3
:1001100055E260E070E0C8010E94FE0160E071E01D
:10012000C8010E9431026CE171E0C8010E943102F5
:1001300061E082E00E94780361E083E00E9478033E
:1001400060E084E00E94780360E085E00E9478032C
:1001500061E086E00E94780361E087E00E94780316
:1001600060E088E00E94780360E089E00E94780304
:1001700061E08CE00E94780361E08DE00E947803EA
:1001800060E08AE00E94780360E08BE00E947803E0
:1001900061E083E00E94DF0360E082E00E94DF0311
:1001A00061E087E00E94DF0360E086E00E94DF03F9
:1001B00061E08DE00E94DF0360E08CE00E94DF03DD
:1001C0001F910F9108950F931F93CF93DF9302E731
:1001D00016E084E00E949603892B19F06DE371E02C
:1001E00002C06CE471E08EEF91E00E94310285E084
:1001F0000E949603892B19F068E571E002C067E65A
:1002000071E08EEF91E00E94310288E00E94960337
:10021000892B19F063E771E002C062E871E08EEFAC
:1002200091E00E94310289E00E949603892B19F027
:100230006EE871E002C06DE971E08EEF91E00E941E
:1002400031028AE00E949603892B19F069EA71E075
:1002500002C068EB71E08EEF91E00E9431028BE00A
:100260000E949603892B19F064EC71E002C063EDE3
:1002700071E08EEF91E00E9431026FED71E08EEF40
:1002800091E00E941102B8018EEF91E00E94B50248
:10029000C0EDD7E061E08CE00E94DF0361E086E022
:1002A0000E94DF0361E082E00E94DF0382E090E0D1
:1002B0000E94210360E08CE00E94DF0360E086E0A2
:1002C0000E94DF0360E082E00E94DF03C8010E9419
:1002D00021032197F9F664EF71E080E090E00E943D
:1002E000FF0267EE71E08EEF91E00E9431028DE037
:1002F0000E94960360E0892B09F461E08DE00E9482
:10030000DF0387E00E94960360E0892B09F461E037
:1003100087E00E94DF0383E00E94960360E0892B60
:1003200009F461E083E00E94DF03C0E0D0E061E017
:100330008CE00E94DF0361E086E00E94DF0361E061
:1003400082E00E94DF0382E090E00E94210360E0EF
:100350008CE00E94DF0360E086E00E94DF0360E043
:1003600082E00E94DF03C8010E942103219687E0FA
:10037000C03DD807E1F668EE73E080E090E00E94AF
:10038000FF0267EE71E08EEF91E00E9431028DE096
:100390000E94960360E0892B09F461E08DE00E94E1
:1003A000DF0387E00E94960360E0892B09F461E097
:1003B00087E00E94DF0383E00E94960360E0892BC0
:1003C00009F461E083E00E94DF030659104081E0F8
:1003D000023C180709F0FDCEDF91CF911F910F91DC
:1003E0000895CFEFD4E0DEBFCDBF0E942E030E9460
:1003F00083000E94E300FDCF08950895CB01BA0168
:100400000E942A0408950E946B04992708950E946F
:100410007C0408950E949B040895862F0E94E204A4
:100420000895CB010E94E9040895862F0E94E204FA
:1004300008950F931F938C016DE00E940D026AE0F6
:10044000C8010E940D021F910F9108950F931F93F1
:100450008C010E940D02C8010E9419021F910F9188
:1004600008950F931F938C010E941102C8010E94EE
:1004700019021F910F9108950F931F938C010E94F1
:100480001502C8010E9419021F910F910895CB0116
:10049000BA013327442755270E94F60408952AE01D
:1004A0000E94470208950F931F938C010E944F02F0
:1004B000C8010E9419021F910F910895AB01662790
:1004C00077270E944F020895EF92FF920F931F9398
:1004D000CF93DF93EC017A018B0177FF0BC06DE2C4
:1004E0000E940D0210950095F094E094E11CF11C1F
:1004F000011D111D2AE0B801A701CE010E9447028B
:10050000DF91CF911F910F91FF90EF9008950F937E
:100510001F938C010E946402C8010E9419021F915E
:100520000F9108952115310521F4642F0E940D02C9
:1005300008952A30310519F40E94640208950E943A
:10054000470208950F931F938C010E949202C801E5
:100550000E9419021F910F910895AB01662757FD64
:100560006095762F0E94640208950F931F938C016B
:100570000E94AD02C8010E9419021F910F910895B7
:10058000089508951F920F920FB60F9211248F9322
:100590009F93AF93BF938091030290910402A09127
:1005A0000502B09106020196A11DB11D80930302C0
:1005B00090930402A0930502B0930602BF91AF91FD
:1005C0009F918F910F900FBE0F901F901895609183
:1005D000030270910402809105029091060227E0C7
:1005E000660F771F881F991F2A95D1F72DE730E0F6
:1005F00040E050E00E94C905CA01B9010895AF92D8
:10060000BF92CF92DF92EF92FF920F931F935B0105
:100610006C010E94E7027B018C010E94E7026E19C7
:100620007F09800B910B6A157B058C059D05A8F34E
:100630001F910F91FF90EF90DF90CF90BF90AF9000
:100640000895019751F0880F991F880F991F0297FD
:100650002FB7F8940197F1F72FBF0895789410926F
:10066000030210920402109205021092060284B551
:10067000826084BD84B5816084BD85B5826085BD9E
:1006800085B5816085BDEEE6F0E080818160808384
:10069000E1E8F0E0808182608083808181608083F6
:1006A000E0E8F0E0808181608083E1EBF0E0808130
:1006B00084608083E0EBF0E0808181608083ECE700
:1006C000F0E080818F778083808180648083EAE797
:1006D000F0E080818460808380818260808380817B
:1006E000816080838081806880831092C10008953A
:1006F000282F3327C90182589F4FFC0194912E5611
:100700003F4FF9018491882381F0E82FFF27E055BE
:10071000FF4FE491FF27662329F480819095892378
:10072000808308958081892B80830895482F5527E1
:10073000CA0186599F4FFC012491CA0182589F4FDC
:10074000FC0194914E565F4FFA0134913323A1F18D
:10075000222331F1233021F4809180008F7705C06E
:10076000243031F4809180008F7D8093800018C008
:10077000213019F484B58F7704C0223021F484B578
:100780008F7D84BD0DC0263021F48091B0008F771D
:1007900005C0273029F48091B0008F7D8093B00090
:1007A000E32FFF27EA55FF4FE491FF27808189233C
:1007B00019F081E090E0089580E090E00895482FDE
:1007C0005527CA0186599F4FFC012491CA018258BE
:1007D0009F4FFC0194914E565F4FFA0134913323A1
:1007E000C1F1222331F1233021F4809180008F77F1
:1007F00005C0243031F4809180008F7D809380008B
:1008000018C0213019F484B58F7704C0223021F448
:1008100084B58F7D84BD0DC0263021F48091B00059
:100820008F7705C0273029F48091B0008F7D8093A9
:10083000B000E32FFF27E555FF4FE491FF27662324
:1008400029F4808190958923808308958081892B64
:1008500080830895EF92FF920F931F937B018C0189
:1008600022E030E040E050E00E94EB05205C3D4B90
:10087000404F5F4FCA01B901A80197010E94EB05E3
:100880002150304040405040BB2757FDBA95A52F1E
:10089000942F832F2F5F3F4F4F4F5F4F8093C500A3
:1008A00021502093C400E1ECF0E0808180618083DE
:1008B0008081886080838081806880831F910F9110
:1008C000FF90EF900895982F8091C00085FFFCCF96
:1008D0009093C600089580910102909102022091A8
:1008E000FF0130910002821B930B80589F4F60E8FC
:1008F00070E00E94B60508954091FF0150910002FA
:1009000080910102909102028417950719F48FEFEC
:100910009FEF0895FA01E95FFD4F2081CA0101961A
:1009200060E870E00E94B605909300028093FF019A
:10093000822F992708958091FF0190910002909352
:1009400002028093010208951F920F920FB60F9238
:1009500011242F933F934F935F936F937F938F93C4
:100960009F93AF93BF93EF93FF934091C600E091A5
:100970000102F0910202CF01019660E870E00E944E
:10098000B6059C018091FF0190910002281739075C
:1009900039F0E95FFD4F408330930202209301025A
:1009A000FF91EF91BF91AF919F918F917F916F9147
:1009B0005F914F913F912F910F900FBE0F901F901D
:1009C000189508950E94630408958AE00E94E20445
:1009D0000895CF93DF93EC0103C021960E94E204B7
:1009E00088818823D1F7DF91CF9108952F923F928C
:1009F0004F925F926F927F928F929F92AF92BF922F
:100A0000CF92DF92EF92FF920F931F93CF93DF93DA
:100A1000CDB7DEB7A0970FB6F894DEBF0FBECDBF3F
:100A20006B017C0119012A01611571058105910590
:100A300021F480E30E94E2044BC066247724430142
:100A40005E010894A11CB11C8501060D171DC7018C
:100A5000B601A20191010E94C905F80160830894C2
:100A6000611C711C811C911CC701B601A20191017E
:100A70000E94C90569017A01211531054105510519
:100A800019F773010894E108F108EA0CFB1CAA2489
:100A9000BB24650111C0F70180818A3010F4805DAC
:100AA00001C0895C0E94E2040894A108B108C10851
:100AB000D1080894E108F10888279927DC018619F4
:100AC0009709A809B909A816B906CA06DB0619F7D5
:100AD000A0960FB6F894DEBF0FBECDBFDF91CF91C9
:100AE0001F910F91FF90EF90DF90CF90BF90AF904C
:100AF0009F908F907F906F905F904F903F902F903E
:100B00000895EF92FF920F931F937B018C0197FF43
:100B10000BC08DE20E94E20410950095F094E094E1
:100B2000E11CF11C011D111D2AE030E040E050E005
:100B3000C801B7010E94F6041F910F91FF90EF903A
:100B4000089520E130E040E050E00E94F60408956E
:100B500028E030E040E050E00E94F604089522E0F2
:100B600030E040E050E00E94F604089597FB092E23
:100B700007260AD077FD04D049D006D000201AF409
:100B8000709561957F4F0895F6F7909581959F4FE9
:100B90000895A1E21A2EAA1BBB1BFD010DC0AA1FBE
:100BA000BB1FEE1FFF1FA217B307E407F50720F0D6
:100BB000A21BB30BE40BF50B661F771F881F991F51
:100BC0001A9469F760957095809590959B01AC019A
:100BD000BD01CF01089597FB092E05260ED057FDC4
:100BE00004D0D7DF0AD0001C38F4509540953095DA
:100BF00021953F4F4F4F5F4F0895F6F790958095A1
:100C0000709561957F4F8F4F9F4F0895AA1BBB1B17
:100C100051E107C0AA1FBB1FA617B70710F0A61BFC
:100C2000B70B881F991F5A95A9F780959095BC011D
:100C3000CD010895EE0FFF1F0590F491E02D09946A
:100C40005374617274696E67207374657070657235
:100C5000206578657263697365722E0053746172E2
:100C600074696E67206F70746F20656E6473746F43
:100C700070206578657263697365722E0058206D07
:100C8000696E20626C6F636B65642E0058206D691D
:100C90006E206F70656E2E0058206D617820626C3A
:100CA0006F636B65642E0058206D6178206F7065EE
:100CB0006E2E0059206D696E20626C6F636B6564E7
:100CC0002E0059206D696E206F70656E2E005920C0
:100CD0006D617820626C6F636B65642E0059206DC6
:100CE0006178206F70656E2E005A206D696E2062EB
:100CF0006C6F636B65642E005A206D696E206F7097
:100D0000656E2E005A206D617820626C6F636B6592
:100D1000642E005A206D6178206F70656E2E00532E
:100D2000706565643A2000537769746368696E671B
:0E0D300020646972656374696F6E732E000033
:00000001FF
