:100000000C9461000C947E000C947E000C947E0095
:100010000C947E000C947E000C947E000C947E0068
:100020000C947E000C947E000C947E000C947E0058
:100030000C947E000C947E000C947E000C947E0048
:100040000C9434020C947E000C947E000C947E0080
:100050000C947E000C947E000C947E000C947E0028
:100060000C947E000C947E00000000002400270009
:100070002A0000000000250028002B0000000000DE
:1000800023002600290004040404040404040202DA
:100090000202020203030303030301020408102007
:1000A0004080010204081020010204081020000012
:1000B0000007000201000003040600000000000029
:1000C000000011241FBECFEFD8E0DEBFCDBF11E08E
:1000D000A0E0B1E0EEE0F7E002C005900D92A231A1
:1000E000B107D9F711E0A2E1B1E001C01D92AD3135
:1000F000B107E1F70E942D020C9485030C940000D7
:10010000E0911201F0911301EE0FFF1FE050FF4F3D
:10011000808160E00E943803809112019091130168
:1001200001969093130180931201049724F010928A
:10013000130110921201E0911201F0911301EE0FE0
:10014000FF1FE050FF4F808161E00E943803089557
:100150000F931F93CF93DF938230910519F4C8E07A
:10016000D7E013C08330910519F4CCEDD5E00DC074
:100170008430910519F4C6E4D5E007C0059719F459
:10018000C6E5D4E002C0C0EDD7E084E190E09093F2
:100190000F0180930E010E94800000E010E012C069
:1001A00080910A0160E00E943803CE010E94B202F1
:1001B00080910A0160E00E943803CE010E94B202E1
:1001C0000F5F1F4F80910E0190910F0108171907C3
:1001D0003CF36BE470E080E090E00E948802DF91E5
:1001E000CF911F910F9108950F931F93CF93DF939A
:1001F0008230910519F4C8E0D7E013C0833091052F
:1002000019F4CCEDD5E00DC08430910519F4C6E4A5
:10021000D5E007C0059719F4C6E5D4E002C0C0EDEB
:10022000D7E084E190E090930F0180930E010E944B
:10023000800000E010E012C080910A0161E00E949D
:100240003803CE010E94B20280910A0160E00E9450
:100250003803CE010E94B2020F5F1F4F80910E0142
:1002600090910F01081719073CF36CE370E080E0F0
:1002700090E00E948802DF91CF911F910F91089525
:1002800083E090E00E94F40064E170E080E090E0A0
:100290000E94880284E090E00E94F40081E090E0F7
:1002A0000E94A80064E170E080E090E00E94880273
:1002B00085E090E00E94F40081E090E00E94A800B8
:1002C00081E090E00E94A80083E090E00E94F400AA
:1002D00081E090E00E94A80081E090E00E94A800E8
:1002E00081E090E00E94A80082E090E00E94F4008B
:1002F00081E090E00E94A80081E090E00E94F4007C
:1003000082E090E00E94F40083E090E00E94F4001C
:1003100081E090E00E94A80081E090E00E94F4005B
:1003200082E090E00E94F40081E090E00E94A8004A
:1003300083E090E00E94F40081E090E00E94A80039
:1003400081E090E00E94A80081E090E00E94F4002B
:1003500081E090E00E94A80082E090E00E94F4001A
:1003600081E090E00E94A80083E090E00E94F40009
:1003700081E090E00E94A80084E090E00E94F400F8
:1003800081E090E00E94A80085E090E00E94F400E7
:1003900081E090E00E94A80064E170E080E090E0DD
:1003A0000E94880208950F931F93CF93DF9380E0FC
:1003B0000E94FA02885592402CF000E011E0C0E063
:1003C000D0E00BC00E9440010FC0F801808160E0C6
:1003D0000E94380321960E5F1F4F80910801909173
:1003E0000901C817D9078CF3DF91CF911F910F91A5
:1003F00008950F931F93CF93DF9380910A0161E0DB
:100400000E94180380910C0161E00E941803809102
:100410000A0160E00E94380380910C0160E00E94B4
:100420003803C0E0D1E000E010E00BC0888161E05B
:100430000E941803888160E00E9438030F5F1F4FFD
:10044000229680910801909109010817190774F309
:10045000DF91CF911F910F9108950E94C0020E94D9
:10046000F9010E94D301FDCF1F920F920FB60F9298
:1004700011242F933F934F935F936F937F938F93A9
:100480009F93AF93BF932091180130911901409130
:100490001A0150911B0170911C01DA01C9010296E9
:1004A000A11DB11D672F6A5F6D3730F06D57DA01FE
:1004B000C9010396A11DB11D60931C018093180111
:1004C00090931901A0931A01B0931B01809114011C
:1004D00090911501A0911601B09117010196A11DEF
:1004E000B11D8093140190931501A0931601B09350
:1004F0001701BF91AF919F918F917F916F915F9104
:100500004F913F912F910F900FBE0F901F90189514
:10051000EF92FF920F931F937B018C018FB7F8949A
:10052000409118015091190160911A0170911B01BD
:100530008FBF2FB7F8948091180190911901A09165
:100540001A01B0911B012FBF841B950BA60BB70B93
:10055000E816F9060A071B0760F71F910F91FF9035
:10056000EF900895019759F0019749F0FC01EE0FC3
:10057000FF1F31978FB7F8943197F1F78FBF089528
:10058000789484B5826084BD84B5816084BD85B56E
:10059000826085BD85B5816085BDEEE6F0E0808135
:1005A00081608083E1E8F0E08081826080838081E7
:1005B00081608083E0E8F0E0808181608083E1EB0E
:1005C000F0E0808184608083E0EBF0E080818160F6
:1005D0008083EAE7F0E080818460808380818260AC
:1005E0008083808181608083808180688083109295
:1005F000C10008958F70909110019295990F990FF5
:10060000907C982B90937C0080917A0080648093FA
:100610007A0080917A0086FDFCCF2091780040918D
:100620007900942F80E030E0282B392BC901089500
:10063000282F30E0C90186569F4FFC0194912A571C
:100640003F4FF9018491882391F0E82FF0E0EE0FFD
:10065000FF1FE859FF4FA591B491662329F48C91AF
:10066000909589238C9308958C91892B8C93089570
:10067000482F50E0CA0182559F4FFC012491CA01C6
:1006800086569F4FFC0194914A575F4FFA0134916F
:100690003323D1F1222331F1233021F480918000E2
:1006A0008F7705C0243031F4809180008F7D809356
:1006B000800018C0213019F484B58F7704C022302F
:1006C00021F484B58F7D84BD0DC0263021F4809146
:1006D000B0008F7705C0273029F48091B0008F7D5E
:1006E0008093B000E32FF0E0EE0FFF1FEE58FF4FB6
:1006F000A591B491662329F48C91909589238C93CC
:0E07000008958C91892B8C930895F894FFCF67
:10070E00030005000A000D00040004000700140099
:02071E000100D8
:00000001FF
